{
  "contractName": "Auction",
  "abi": [
    {
      "constant": true,
      "inputs": [],
      "name": "creator",
      "outputs": [
        {
          "name": "",
          "type": "address"
        }
      ],
      "payable": false,
      "stateMutability": "view",
      "type": "function"
    },
    {
      "constant": true,
      "inputs": [],
      "name": "startBlockNum",
      "outputs": [
        {
          "name": "",
          "type": "uint256"
        }
      ],
      "payable": false,
      "stateMutability": "view",
      "type": "function"
    },
    {
      "constant": true,
      "inputs": [],
      "name": "minimumPrice",
      "outputs": [
        {
          "name": "",
          "type": "uint256"
        }
      ],
      "payable": false,
      "stateMutability": "view",
      "type": "function"
    },
    {
      "constant": true,
      "inputs": [],
      "name": "biddingBlocksNum",
      "outputs": [
        {
          "name": "",
          "type": "uint256"
        }
      ],
      "payable": false,
      "stateMutability": "view",
      "type": "function"
    },
    {
      "inputs": [
        {
          "name": "reservePrice",
          "type": "uint256"
        },
        {
          "name": "biddingTimePeriod",
          "type": "uint256"
        },
        {
          "name": "judgeAddress",
          "type": "address"
        }
      ],
      "payable": false,
      "stateMutability": "nonpayable",
      "type": "constructor"
    },
    {
      "constant": false,
      "inputs": [],
      "name": "bid",
      "outputs": [
        {
          "name": "",
          "type": "address"
        }
      ],
      "payable": true,
      "stateMutability": "payable",
      "type": "function"
    },
    {
      "constant": false,
      "inputs": [
        {
          "name": "bidCommitment",
          "type": "bytes32"
        }
      ],
      "name": "commitBid",
      "outputs": [
        {
          "name": "",
          "type": "bool"
        }
      ],
      "payable": true,
      "stateMutability": "payable",
      "type": "function"
    },
    {
      "constant": false,
      "inputs": [
        {
          "name": "nonce",
          "type": "uint256"
        }
      ],
      "name": "revealBid",
      "outputs": [
        {
          "name": "",
          "type": "address"
        }
      ],
      "payable": true,
      "stateMutability": "payable",
      "type": "function"
    },
    {
      "constant": false,
      "inputs": [],
      "name": "finalize",
      "outputs": [],
      "payable": false,
      "stateMutability": "nonpayable",
      "type": "function"
    },
    {
      "constant": false,
      "inputs": [
        {
          "name": "refundAmount",
          "type": "uint256"
        }
      ],
      "name": "refund",
      "outputs": [],
      "payable": false,
      "stateMutability": "nonpayable",
      "type": "function"
    }
  ],
  "bytecode": "0x608060405234801561001057600080fd5b506040516060806104da833981018060405281019080805190602001909291908051906020019092919080519060200190929190505050826000819055508160018190555080600260006101000a81548173ffffffffffffffffffffffffffffffffffffffff021916908373ffffffffffffffffffffffffffffffffffffffff1602179055504360038190555033600460006101000a81548173ffffffffffffffffffffffffffffffffffffffff021916908373ffffffffffffffffffffffffffffffffffffffff1602179055505050506103ea806100f06000396000f300608060405260043610610099576000357c0100000000000000000000000000000000000000000000000000000000900463ffffffff16806302d05d3f1461009e5780631998aeef146100f557806319ad5c1c1461013f578063278ecde11461016a5780633e3b903e146101975780634bb278f3146101f75780637f386b6c1461020e57806386a2cc2714610239578063dce5744114610275575b600080fd5b3480156100aa57600080fd5b506100b36102a0565b604051808273ffffffffffffffffffffffffffffffffffffffff1673ffffffffffffffffffffffffffffffffffffffff16815260200191505060405180910390f35b6100fd6102c6565b604051808273ffffffffffffffffffffffffffffffffffffffff1673ffffffffffffffffffffffffffffffffffffffff16815260200191505060405180910390f35b34801561014b57600080fd5b506101546102e4565b6040518082815260200191505060405180910390f35b34801561017657600080fd5b50610195600480360381019080803590602001909291905050506102ea565b005b6101b560048036038101908080359060200190929190505050610363565b604051808273ffffffffffffffffffffffffffffffffffffffff1673ffffffffffffffffffffffffffffffffffffffff16815260200191505060405180910390f35b34801561020357600080fd5b5061020c610376565b005b34801561021a57600080fd5b50610223610392565b6040518082815260200191505060405180910390f35b61025b6004803603810190808035600019169060200190929190505050610398565b604051808215151515815260200191505060405180910390f35b34801561028157600080fd5b5061028a6103b8565b6040518082815260200191505060405180910390f35b600460009054906101000a900473ffffffffffffffffffffffffffffffffffffffff1681565b60008015156102d457600080fd5b600015156102e157600080fd5b90565b60035481565b600015156102f757600080fd5b600260009054906101000a900473ffffffffffffffffffffffffffffffffffffffff1673ffffffffffffffffffffffffffffffffffffffff163373ffffffffffffffffffffffffffffffffffffffff1614151561035357600080fd5b6000151561036057600080fd5b50565b600080151561037157600080fd5b919050565b6000151561038357600080fd5b6000151561039057600080fd5b565b60005481565b60008015156103a657600080fd5b600015156103b357600080fd5b919050565b600154815600a165627a7a723058207b9de0364d453b4aa7c5f6a9ef2f6f0e2228acae19b854f14761caa64068d1330029",
  "source": "pragma solidity ^0.4.4;\ncontract Auction {\n\t\n\tuint256 public minimumPrice;  \n\tuint256 public biddingBlocksNum;  \n\taddress judgeAddr;\n\tuint256 public startBlockNum;\n\taddress public creator;\n\taddress highestBidder;\n\tuint256 highestBid;\n\t\n\t// constructor\n\tfunction Auction(uint256 reservePrice, uint256 biddingTimePeriod, address judgeAddress) {\n\t\tminimumPrice = reservePrice;\n\t\tbiddingBlocksNum = biddingTimePeriod;\n\t\tjudgeAddr = judgeAddress;\n\t\tstartBlockNum = block.number; \n\t\tcreator = msg.sender;\n\t}\n\t// Three types of bidding functions. If not overriden, these generate errors\n\tfunction bid() biddingOpen payable returns(address) {\n\t\trequire(false);\n\t}\n\tfunction commitBid(bytes32 bidCommitment) biddingOpen payable returns(bool) {\n\t\trequire(false);\n\t}\n\tfunction revealBid(uint256 nonce) payable returns(address) {\n\t\trequire(false);\n\t}\n\tfunction finalize() auctionOver {\n\t\trequire(false);\n\t}\n\t\n\tfunction refund(uint256 refundAmount) auctionOver judgeOnly {\n\t\trequire(false);\n\t}\n\tmodifier biddingOpen {\n\t\trequire(false);\n\t\t_;\n\t}\n\tmodifier auctionOver {\n\t\trequire(false);\n\t\t_;\n\t}\n\tmodifier judgeOnly {\n\t\trequire(msg.sender == judgeAddr);\n\t\t_;\n\t}\n\t\n}",
  "sourcePath": "/Users/user/OneDrive - Slovenska패 technicka패 univerzita v Bratislave/skola/PhD studium/Blockchain predmet/Cvicenie 6/contracts/Auction.sol",
  "compiler": {
    "name": "solc",
    "version": "0.4.24+commit.e67f0147.Emscripten.clang"
  },
  "schemaVersion": "2.0.1",
  "updatedAt": "2021-03-24T21:08:19.370Z"
}