{
  "contractName": "Auctions",
  "abi": [
    {
      "constant": false,
      "inputs": [
        {
          "name": "id",
          "type": "uint256"
        }
      ],
      "name": "testAuction",
      "outputs": [
        {
          "name": "aid",
          "type": "uint256"
        }
      ],
      "payable": false,
      "stateMutability": "nonpayable",
      "type": "function"
    },
    {
      "constant": false,
      "inputs": [
        {
          "name": "reservePrice",
          "type": "uint256"
        },
        {
          "name": "judgeAddress",
          "type": "address"
        },
        {
          "name": "biddingTimePeriod",
          "type": "uint256"
        },
        {
          "name": "offerPriceDecrement",
          "type": "uint256"
        }
      ],
      "name": "beginDutchAuction",
      "outputs": [
        {
          "name": "auctionID",
          "type": "uint256"
        }
      ],
      "payable": false,
      "stateMutability": "nonpayable",
      "type": "function"
    },
    {
      "constant": false,
      "inputs": [
        {
          "name": "reservePrice",
          "type": "uint256"
        },
        {
          "name": "judgeAddress",
          "type": "address"
        },
        {
          "name": "biddingTimePeriod",
          "type": "uint256"
        },
        {
          "name": "minBidIncrement",
          "type": "uint256"
        }
      ],
      "name": "beginEnglishAuction",
      "outputs": [
        {
          "name": "auctionID",
          "type": "uint256"
        }
      ],
      "payable": false,
      "stateMutability": "nonpayable",
      "type": "function"
    },
    {
      "constant": false,
      "inputs": [
        {
          "name": "reservePrice",
          "type": "uint256"
        },
        {
          "name": "judgeAddress",
          "type": "address"
        },
        {
          "name": "commitTimePeriod",
          "type": "uint256"
        },
        {
          "name": "revealTimePeriod",
          "type": "uint256"
        },
        {
          "name": "bidDepositAmount",
          "type": "uint256"
        }
      ],
      "name": "beginVickreyAuction",
      "outputs": [
        {
          "name": "auctionID",
          "type": "uint256"
        }
      ],
      "payable": false,
      "stateMutability": "nonpayable",
      "type": "function"
    },
    {
      "constant": false,
      "inputs": [
        {
          "name": "id",
          "type": "uint256"
        }
      ],
      "name": "bid",
      "outputs": [
        {
          "name": "",
          "type": "address"
        }
      ],
      "payable": true,
      "stateMutability": "payable",
      "type": "function"
    },
    {
      "constant": false,
      "inputs": [
        {
          "name": "id",
          "type": "uint256"
        }
      ],
      "name": "finalize",
      "outputs": [],
      "payable": false,
      "stateMutability": "nonpayable",
      "type": "function"
    },
    {
      "constant": false,
      "inputs": [
        {
          "name": "id",
          "type": "uint256"
        },
        {
          "name": "amount",
          "type": "uint256"
        }
      ],
      "name": "refund",
      "outputs": [],
      "payable": false,
      "stateMutability": "nonpayable",
      "type": "function"
    },
    {
      "constant": false,
      "inputs": [
        {
          "name": "id",
          "type": "uint256"
        },
        {
          "name": "nonce",
          "type": "uint256"
        }
      ],
      "name": "revealBid",
      "outputs": [
        {
          "name": "",
          "type": "address"
        }
      ],
      "payable": true,
      "stateMutability": "payable",
      "type": "function"
    },
    {
      "constant": false,
      "inputs": [
        {
          "name": "id",
          "type": "uint256"
        },
        {
          "name": "bidCommitment",
          "type": "bytes32"
        }
      ],
      "name": "commitBid",
      "outputs": [
        {
          "name": "",
          "type": "bool"
        }
      ],
      "payable": true,
      "stateMutability": "payable",
      "type": "function"
    }
  ],
  "bytecode": "0x608060405234801561001057600080fd5b50612f91806100206000396000f300608060405260043610610099576000357c0100000000000000000000000000000000000000000000000000000000900463ffffffff16806305261aea1461009e578063454a2ab3146100cb5780634d23cb591461012b5780635af36e3e146101a05780637a935370146101d75780639468cb6114610241578063d114e1f714610287578063e37fd2bf146102c8578063fe4f955c1461033d575b600080fd5b3480156100aa57600080fd5b506100c9600480360381019080803590602001909291905050506103bc565b005b6100e96004803603810190808035906020019092919050505061046d565b604051808273ffffffffffffffffffffffffffffffffffffffff1673ffffffffffffffffffffffffffffffffffffffff16815260200191505060405180910390f35b34801561013757600080fd5b5061018a60048036038101908080359060200190929190803573ffffffffffffffffffffffffffffffffffffffff1690602001909291908035906020019092919080359060200190929190505050610548565b6040518082815260200191505060405180910390f35b3480156101ac57600080fd5b506101d5600480360381019080803590602001909291908035906020019092919050505061062c565b005b6101ff60048036038101908080359060200190929190803590602001909291905050506106e9565b604051808273ffffffffffffffffffffffffffffffffffffffff1673ffffffffffffffffffffffffffffffffffffffff16815260200191505060405180910390f35b61026d6004803603810190808035906020019092919080356000191690602001909291905050506107d0565b604051808215151515815260200191505060405180910390f35b34801561029357600080fd5b506102b2600480360381019080803590602001909291905050506108bf565b6040518082815260200191505060405180910390f35b3480156102d457600080fd5b5061032760048036038101908080359060200190929190803573ffffffffffffffffffffffffffffffffffffffff16906020019092919080359060200190929190803590602001909291905050506108cb565b6040518082815260200191505060405180910390f35b34801561034957600080fd5b506103a660048036038101908080359060200190929190803573ffffffffffffffffffffffffffffffffffffffff1690602001909291908035906020019092919080359060200190929190803590602001909291905050506109af565b6040518082815260200191505060405180910390f35b60008082815260200190815260200160002060009054906101000a900473ffffffffffffffffffffffffffffffffffffffff1673ffffffffffffffffffffffffffffffffffffffff16634bb278f36040518163ffffffff167c0100000000000000000000000000000000000000000000000000000000028152600401600060405180830381600087803b15801561045257600080fd5b505af1158015610466573d6000803e3d6000fd5b5050505050565b600080600083815260200190815260200160002060009054906101000a900473ffffffffffffffffffffffffffffffffffffffff1673ffffffffffffffffffffffffffffffffffffffff16631998aeef346040518263ffffffff167c01000000000000000000000000000000000000000000000000000000000281526004016020604051808303818588803b15801561050557600080fd5b505af1158015610519573d6000803e3d6000fd5b50505050506040513d602081101561053057600080fd5b81019080805190602001909291905050509050919050565b60006001600081548092919060010191905055905084848484610569610a9c565b808581526020018473ffffffffffffffffffffffffffffffffffffffff1673ffffffffffffffffffffffffffffffffffffffff168152602001838152602001828152602001945050505050604051809103906000f0801580156105d0573d6000803e3d6000fd5b5060008083815260200190815260200160002060006101000a81548173ffffffffffffffffffffffffffffffffffffffff021916908373ffffffffffffffffffffffffffffffffffffffff160217905550809050949350505050565b60008083815260200190815260200160002060009054906101000a900473ffffffffffffffffffffffffffffffffffffffff1673ffffffffffffffffffffffffffffffffffffffff1663278ecde1826040518263ffffffff167c010000000000000000000000000000000000000000000000000000000002815260040180828152602001915050600060405180830381600087803b1580156106cd57600080fd5b505af11580156106e1573d6000803e3d6000fd5b505050505050565b600080600084815260200190815260200160002060009054906101000a900473ffffffffffffffffffffffffffffffffffffffff1673ffffffffffffffffffffffffffffffffffffffff16633e3b903e34846040518363ffffffff167c0100000000000000000000000000000000000000000000000000000000028152600401808281526020019150506020604051808303818588803b15801561078c57600080fd5b505af11580156107a0573d6000803e3d6000fd5b50505050506040513d60208110156107b757600080fd5b8101908080519060200190929190505050905092915050565b600080600084815260200190815260200160002060009054906101000a900473ffffffffffffffffffffffffffffffffffffffff1673ffffffffffffffffffffffffffffffffffffffff166386a2cc2734846040518363ffffffff167c01000000000000000000000000000000000000000000000000000000000281526004018082600019166000191681526020019150506020604051808303818588803b15801561087b57600080fd5b505af115801561088f573d6000803e3d6000fd5b50505050506040513d60208110156108a657600080fd5b8101908080519060200190929190505050905092915050565b60006001549050919050565b600060016000815480929190600101919050559050848484846108ec610aac565b808581526020018473ffffffffffffffffffffffffffffffffffffffff1673ffffffffffffffffffffffffffffffffffffffff168152602001838152602001828152602001945050505050604051809103906000f080158015610953573d6000803e3d6000fd5b5060008083815260200190815260200160002060006101000a81548173ffffffffffffffffffffffffffffffffffffffff021916908373ffffffffffffffffffffffffffffffffffffffff160217905550809050949350505050565b60006001600081548092919060010191905055905085858585856109d1610abc565b808681526020018573ffffffffffffffffffffffffffffffffffffffff1673ffffffffffffffffffffffffffffffffffffffff16815260200184815260200183815260200182815260200195505050505050604051809103906000f080158015610a3f573d6000803e3d6000fd5b5060008083815260200190815260200160002060006101000a81548173ffffffffffffffffffffffffffffffffffffffff021916908373ffffffffffffffffffffffffffffffffffffffff16021790555080905095945050505050565b604051610bfb80610acd83390190565b6040516109b4806116c883390190565b604051610eea8061207c833901905600608060405234801561001057600080fd5b50604051608080610bfb83398101806040528101908080519060200190929190805190602001909291908051906020019092919080519060200190929190505050838284826000819055508160018190555080600260006101000a81548173ffffffffffffffffffffffffffffffffffffffff021916908373ffffffffffffffffffffffffffffffffffffffff1602179055504360038190555033600460006101000a81548173ffffffffffffffffffffffffffffffffffffffff021916908373ffffffffffffffffffffffffffffffffffffffff16021790555050505080600781905550600360088190555050505050610aeb806101106000396000f3006080604052600436106100d0576000357c0100000000000000000000000000000000000000000000000000000000900463ffffffff16806302d05d3f146100d55780631998aeef1461012c57806319ad5c1c14610176578063278ecde1146101a15780632a4af21c146101ce5780632df5c8cd146101f9578063335b115e146102505780633ccfd60b1461027b5780633e3b903e146102925780634bb278f3146102f257806371974cbe146103095780637f386b6c1461033457806386a2cc271461035f578063dce574411461039b575b600080fd5b3480156100e157600080fd5b506100ea6103c6565b604051808273ffffffffffffffffffffffffffffffffffffffff1673ffffffffffffffffffffffffffffffffffffffff16815260200191505060405180910390f35b6101346103ec565b604051808273ffffffffffffffffffffffffffffffffffffffff1673ffffffffffffffffffffffffffffffffffffffff16815260200191505060405180910390f35b34801561018257600080fd5b5061018b6105c9565b6040518082815260200191505060405180910390f35b3480156101ad57600080fd5b506101cc600480360381019080803590602001909291905050506105cf565b005b3480156101da57600080fd5b506101e36107d6565b6040518082815260200191505060405180910390f35b34801561020557600080fd5b5061023a600480360381019080803573ffffffffffffffffffffffffffffffffffffffff1690602001909291905050506107dc565b6040518082815260200191505060405180910390f35b34801561025c57600080fd5b506102656107f4565b6040518082815260200191505060405180910390f35b34801561028757600080fd5b506102906107fa565b005b6102b0600480360381019080803590602001909291905050506108d7565b604051808273ffffffffffffffffffffffffffffffffffffffff1673ffffffffffffffffffffffffffffffffffffffff16815260200191505060405180910390f35b3480156102fe57600080fd5b506103076108ea565b005b34801561031557600080fd5b5061031e610a6f565b6040518082815260200191505060405180910390f35b34801561034057600080fd5b50610349610a75565b6040518082815260200191505060405180910390f35b6103816004803603810190808035600019169060200190929190505050610a7b565b604051808215151515815260200191505060405180910390f35b3480156103a757600080fd5b506103b0610ab9565b6040518082815260200191505060405180910390f35b600460009054906101000a900473ffffffffffffffffffffffffffffffffffffffff1681565b600043600854600954011015151561040357600080fd5b60015460035401431115151561041857600080fd5b600054341015151561042957600080fd5b60075460065401341015151561043e57600080fd5b6000600560009054906101000a900473ffffffffffffffffffffffffffffffffffffffff1673ffffffffffffffffffffffffffffffffffffffff1614151561055257600560009054906101000a900473ffffffffffffffffffffffffffffffffffffffff1673ffffffffffffffffffffffffffffffffffffffff166108fc6006549081150290604051600060405180830381858888f19350505050151561055157600654600a6000600560009054906101000a900473ffffffffffffffffffffffffffffffffffffffff1673ffffffffffffffffffffffffffffffffffffffff1673ffffffffffffffffffffffffffffffffffffffff168152602001908152602001600020600082825401925050819055505b5b33600560006101000a81548173ffffffffffffffffffffffffffffffffffffffff021916908373ffffffffffffffffffffffffffffffffffffffff1602179055503460068190555043600981905550600560009054906101000a900473ffffffffffffffffffffffffffffffffffffffff16905090565b60035481565b60015460035401431115156105e357600080fd5b600260009054906101000a900473ffffffffffffffffffffffffffffffffffffffff1673ffffffffffffffffffffffffffffffffffffffff163373ffffffffffffffffffffffffffffffffffffffff1614151561063f57600080fd5b6000600560009054906101000a900473ffffffffffffffffffffffffffffffffffffffff1673ffffffffffffffffffffffffffffffffffffffff161415151561068757600080fd5b3073ffffffffffffffffffffffffffffffffffffffff163181111515156106ad57600080fd5b600b60019054906101000a900460ff161580156106d75750600b60009054906101000a900460ff16155b15156106e257600080fd5b6001600b60006101000a81548160ff021916908315150217905550600560009054906101000a900473ffffffffffffffffffffffffffffffffffffffff1673ffffffffffffffffffffffffffffffffffffffff166108fc829081150290604051600060405180830381858888f19350505050158015610765573d6000803e3d6000fd5b50600460009054906101000a900473ffffffffffffffffffffffffffffffffffffffff1673ffffffffffffffffffffffffffffffffffffffff166108fc82600654039081150290604051600060405180830381858888f193505050501580156107d2573d6000803e3d6000fd5b5050565b60085481565b600a6020528060005260406000206000915090505481565b60075481565b6000600a60003373ffffffffffffffffffffffffffffffffffffffff1673ffffffffffffffffffffffffffffffffffffffff1681526020019081526020016000205490506000600a60003373ffffffffffffffffffffffffffffffffffffffff1673ffffffffffffffffffffffffffffffffffffffff1681526020019081526020016000208190555060008111156108d4573373ffffffffffffffffffffffffffffffffffffffff166108fc829081150290604051600060405180830381858888f193505050501580156108d2573d6000803e3d6000fd5b505b50565b60008015156108e557600080fd5b919050565b60015460035401431115156108fe57600080fd5b600560009054906101000a900473ffffffffffffffffffffffffffffffffffffffff1673ffffffffffffffffffffffffffffffffffffffff163373ffffffffffffffffffffffffffffffffffffffff1614806109a75750600260009054906101000a900473ffffffffffffffffffffffffffffffffffffffff1673ffffffffffffffffffffffffffffffffffffffff163373ffffffffffffffffffffffffffffffffffffffff16145b15156109b257600080fd5b600b60009054906101000a900460ff161580156109dc5750600b60019054906101000a900460ff16155b15156109e757600080fd5b6001600b60016101000a81548160ff021916908315150217905550600460009054906101000a900473ffffffffffffffffffffffffffffffffffffffff1673ffffffffffffffffffffffffffffffffffffffff166108fc6006549081150290604051600060405180830381858888f19350505050158015610a6c573d6000803e3d6000fd5b50565b60095481565b60005481565b6000436008546009540110151515610a9257600080fd5b600154600354014311151515610aa757600080fd5b60001515610ab457600080fd5b919050565b600154815600a165627a7a723058203f2545f21941e0ac386e5c88ae25ebbc66ad697fc86e031a3c7f577d085fd87f0029608060405234801561001057600080fd5b506040516080806109b483398101806040528101908080519060200190929190805190602001909291908051906020019092919080519060200190929190505050838284826000819055508160018190555080600260006101000a81548173ffffffffffffffffffffffffffffffffffffffff021916908373ffffffffffffffffffffffffffffffffffffffff1602179055504360038190555033600460006101000a81548173ffffffffffffffffffffffffffffffffffffffff021916908373ffffffffffffffffffffffffffffffffffffffff160217905550505050806007819055508082028401600981905550505050506108a1806101136000396000f3006080604052600436106100ba576000357c0100000000000000000000000000000000000000000000000000000000900463ffffffff16806302d05d3f146100bf5780631998aeef1461011657806319ad5c1c14610160578063278ecde11461018b5780633e3b903e146101b85780634bb278f314610218578063532d04561461022f5780637f386b6c1461025a57806386a2cc2714610285578063a6ff1f0d146102c1578063dce57441146102f0578063f1a9af891461031b575b600080fd5b3480156100cb57600080fd5b506100d4610346565b604051808273ffffffffffffffffffffffffffffffffffffffff1673ffffffffffffffffffffffffffffffffffffffff16815260200191505060405180910390f35b61011e61036c565b604051808273ffffffffffffffffffffffffffffffffffffffff1673ffffffffffffffffffffffffffffffffffffffff16815260200191505060405180910390f35b34801561016c57600080fd5b5061017561044a565b6040518082815260200191505060405180910390f35b34801561019757600080fd5b506101b660048036038101908080359060200190929190505050610450565b005b6101d660048036038101908080359060200190929190505050610681565b604051808273ffffffffffffffffffffffffffffffffffffffff1673ffffffffffffffffffffffffffffffffffffffff16815260200191505060405180910390f35b34801561022457600080fd5b5061022d610694565b005b34801561023b57600080fd5b50610244610805565b6040518082815260200191505060405180910390f35b34801561026657600080fd5b5061026f61080b565b6040518082815260200191505060405180910390f35b6102a76004803603810190808035600019169060200190929190505050610811565b604051808215151515815260200191505060405180910390f35b3480156102cd57600080fd5b506102d6610856565b604051808215151515815260200191505060405180910390f35b3480156102fc57600080fd5b50610305610869565b6040518082815260200191505060405180910390f35b34801561032757600080fd5b5061033061086f565b6040518082815260200191505060405180910390f35b600460009054906101000a900473ffffffffffffffffffffffffffffffffffffffff1681565b60008060015460035401431115151561038457600080fd5b600860009054906101000a900460ff161515156103a057600080fd5b6007546003544303026009540390508034101515156103be57600080fd5b33600560006101000a81548173ffffffffffffffffffffffffffffffffffffffff021916908373ffffffffffffffffffffffffffffffffffffffff160217905550346006819055506001600860006101000a81548160ff021916908315150217905550600560009054906101000a900473ffffffffffffffffffffffffffffffffffffffff1691505090565b60035481565b600154600354014311806104705750600860009054906101000a900460ff165b151561047b57600080fd5b600260009054906101000a900473ffffffffffffffffffffffffffffffffffffffff1673ffffffffffffffffffffffffffffffffffffffff163373ffffffffffffffffffffffffffffffffffffffff161415156104d757600080fd5b6000600560009054906101000a900473ffffffffffffffffffffffffffffffffffffffff1673ffffffffffffffffffffffffffffffffffffffff161415151561051f57600080fd5b3073ffffffffffffffffffffffffffffffffffffffff1631811115151561054557600080fd5b600a60019054906101000a900460ff1615801561056f5750600a60009054906101000a900460ff16155b151561057a57600080fd5b6001600a60006101000a81548160ff021916908315150217905550600560009054906101000a900473ffffffffffffffffffffffffffffffffffffffff1673ffffffffffffffffffffffffffffffffffffffff166108fc829081150290604051600060405180830381858888f193505050501580156105fd573d6000803e3d6000fd5b50600460009054906101000a900473ffffffffffffffffffffffffffffffffffffffff1673ffffffffffffffffffffffffffffffffffffffff166108fc3073ffffffffffffffffffffffffffffffffffffffff16319081150290604051600060405180830381858888f1935050505015801561067d573d6000803e3d6000fd5b5050565b600080151561068f57600080fd5b919050565b600560009054906101000a900473ffffffffffffffffffffffffffffffffffffffff1673ffffffffffffffffffffffffffffffffffffffff163373ffffffffffffffffffffffffffffffffffffffff16148061073d5750600260009054906101000a900473ffffffffffffffffffffffffffffffffffffffff1673ffffffffffffffffffffffffffffffffffffffff163373ffffffffffffffffffffffffffffffffffffffff16145b151561074857600080fd5b600a60009054906101000a900460ff161580156107725750600a60019054906101000a900460ff16155b151561077d57600080fd5b6001600a60016101000a81548160ff021916908315150217905550600460009054906101000a900473ffffffffffffffffffffffffffffffffffffffff1673ffffffffffffffffffffffffffffffffffffffff166108fc6006549081150290604051600060405180830381858888f19350505050158015610802573d6000803e3d6000fd5b50565b60075481565b60005481565b600060015460035401431115151561082857600080fd5b600860009054906101000a900460ff1615151561084457600080fd5b6000151561085157600080fd5b919050565b600860009054906101000a900460ff1681565b60015481565b600954815600a165627a7a723058207bbb2fca8cee2bcf1955d4bb0ac23629e47aaba0ce5ffa14a050957cd1d00a0c0029608060405234801561001057600080fd5b5060405160a080610eea8339810180604052810190808051906020019092919080519060200190929190805190602001909291908051906020019092919080519060200190929190505050848385826000819055508160018190555080600260006101000a81548173ffffffffffffffffffffffffffffffffffffffff021916908373ffffffffffffffffffffffffffffffffffffffff1602179055504360038190555033600460006101000a81548173ffffffffffffffffffffffffffffffffffffffff021916908373ffffffffffffffffffffffffffffffffffffffff16021790555050505080600781905550816008819055505050505050610dd08061011a6000396000f3006080604052600436106100ba576000357c0100000000000000000000000000000000000000000000000000000000900463ffffffff16806302d05d3f146100bf5780631998aeef1461011657806319ad5c1c14610160578063278ecde11461018b5780633ccfd60b146101b85780633e3b903e146101e35780634bb278f3146102435780637f386b6c1461025a57806386a2cc2714610285578063aac71c29146102c1578063dce57441146102ec578063e7c6d95814610317575b600080fd5b3480156100cb57600080fd5b506100d4610342565b604051808273ffffffffffffffffffffffffffffffffffffffff1673ffffffffffffffffffffffffffffffffffffffff16815260200191505060405180910390f35b61011e610368565b604051808273ffffffffffffffffffffffffffffffffffffffff1673ffffffffffffffffffffffffffffffffffffffff16815260200191505060405180910390f35b34801561016c57600080fd5b5061017561038f565b6040518082815260200191505060405180910390f35b34801561019757600080fd5b506101b660048036038101908080359060200190929190505050610395565b005b3480156101c457600080fd5b506101cd610637565b6040518082815260200191505060405180910390f35b6102016004803603810190808035906020019092919050505061086e565b604051808273ffffffffffffffffffffffffffffffffffffffff1673ffffffffffffffffffffffffffffffffffffffff16815260200191505060405180910390f35b34801561024f57600080fd5b50610258610aaf565b005b34801561026657600080fd5b5061026f610ccf565b6040518082815260200191505060405180910390f35b6102a76004803603810190808035600019169060200190929190505050610cd5565b604051808215151515815260200191505060405180910390f35b3480156102cd57600080fd5b506102d6610d92565b6040518082815260200191505060405180910390f35b3480156102f857600080fd5b50610301610d98565b6040518082815260200191505060405180910390f35b34801561032357600080fd5b5061032c610d9e565b6040518082815260200191505060405180910390f35b600460009054906101000a900473ffffffffffffffffffffffffffffffffffffffff1681565b600060015460035401431115151561037f57600080fd5b6000151561038c57600080fd5b90565b60035481565b600015156103a257600080fd5b600260009054906101000a900473ffffffffffffffffffffffffffffffffffffffff1673ffffffffffffffffffffffffffffffffffffffff163373ffffffffffffffffffffffffffffffffffffffff161415156103fe57600080fd5b6000600560009054906101000a900473ffffffffffffffffffffffffffffffffffffffff1673ffffffffffffffffffffffffffffffffffffffff161415151561044657600080fd5b3073ffffffffffffffffffffffffffffffffffffffff1631811115151561046c57600080fd5b600a60019054906101000a900460ff161580156104965750600a60009054906101000a900460ff16155b15156104a157600080fd5b6001600a60006101000a81548160ff021916908315150217905550600560009054906101000a900473ffffffffffffffffffffffffffffffffffffffff1673ffffffffffffffffffffffffffffffffffffffff166108fc829081150290604051600060405180830381858888f19350505050158015610524573d6000803e3d6000fd5b50600060095414801561053957506000600654115b156105bb578060005411156105b657600460009054906101000a900473ffffffffffffffffffffffffffffffffffffffff1673ffffffffffffffffffffffffffffffffffffffff166108fc82600054039081150290604051600060405180830381858888f193505050501580156105b4573d6000803e3d6000fd5b505b610634565b80600954111561063357600460009054906101000a900473ffffffffffffffffffffffffffffffffffffffff1673ffffffffffffffffffffffffffffffffffffffff166108fc82600954039081150290604051600060405180830381858888f19350505050158015610631573d6000803e3d6000fd5b505b5b50565b600080600060085460015460035401014311151561065457600080fd5b600560009054906101000a900473ffffffffffffffffffffffffffffffffffffffff1673ffffffffffffffffffffffffffffffffffffffff163373ffffffffffffffffffffffffffffffffffffffff161415610797576009549050600060095414156106c05760005490505b80600c60003373ffffffffffffffffffffffffffffffffffffffff1673ffffffffffffffffffffffffffffffffffffffff1681526020019081526020016000205403915080600c60003373ffffffffffffffffffffffffffffffffffffffff1673ffffffffffffffffffffffffffffffffffffffff168152602001908152602001600020819055503373ffffffffffffffffffffffffffffffffffffffff166108fc839081150290604051600060405180830381858888f1935050505015801561078e573d6000803e3d6000fd5b50819250610869565b600c60003373ffffffffffffffffffffffffffffffffffffffff1673ffffffffffffffffffffffffffffffffffffffff1681526020019081526020016000205491506000600c60003373ffffffffffffffffffffffffffffffffffffffff1673ffffffffffffffffffffffffffffffffffffffff168152602001908152602001600020819055503373ffffffffffffffffffffffffffffffffffffffff166108fc839081150290604051600060405180830381858888f19350505050158015610864573d6000803e3d6000fd5b508192505b505090565b600080600154600354014311151561088557600080fd5b6008546001546003540101431115151561089e57600080fd5b82346040518083815260200182815260200192505050604051809103902090506000600b60003373ffffffffffffffffffffffffffffffffffffffff1673ffffffffffffffffffffffffffffffffffffffff1681526020019081526020016000206000836000191660001916815260200190815260200160002060009054906101000a900463ffffffff1663ffffffff1611151561093b57600080fd5b600b60003373ffffffffffffffffffffffffffffffffffffffff1673ffffffffffffffffffffffffffffffffffffffff16815260200190815260200160002060008260001916600019168152602001908152602001600020600081819054906101000a900463ffffffff16809291906001900391906101000a81548163ffffffff021916908363ffffffff1602179055505034600c60003373ffffffffffffffffffffffffffffffffffffffff1673ffffffffffffffffffffffffffffffffffffffff1681526020019081526020016000206000828254019250508190555060095434118015610a2d57506000543410155b15610a5d57600654341115610a545760065460098190555034600681905550339150610a5c565b346009819055505b5b3373ffffffffffffffffffffffffffffffffffffffff166108fc6007549081150290604051600060405180830381858888f19350505050158015610aa5573d6000803e3d6000fd5b5081915050919050565b600854600154600354010143111515610ac757600080fd5b600560009054906101000a900473ffffffffffffffffffffffffffffffffffffffff1673ffffffffffffffffffffffffffffffffffffffff163373ffffffffffffffffffffffffffffffffffffffff161480610b705750600260009054906101000a900473ffffffffffffffffffffffffffffffffffffffff1673ffffffffffffffffffffffffffffffffffffffff163373ffffffffffffffffffffffffffffffffffffffff16145b1515610b7b57600080fd5b600a60009054906101000a900460ff16158015610ba55750600a60019054906101000a900460ff16155b1515610bb057600080fd5b6001600a60016101000a81548160ff0219169083151502179055506000600954148015610be05750600060065414155b15610c5557600460009054906101000a900473ffffffffffffffffffffffffffffffffffffffff1673ffffffffffffffffffffffffffffffffffffffff166108fc6000549081150290604051600060405180830381858888f19350505050158015610c4f573d6000803e3d6000fd5b50610ccd565b60006009541115610ccc57600460009054906101000a900473ffffffffffffffffffffffffffffffffffffffff1673ffffffffffffffffffffffffffffffffffffffff166108fc6009549081150290604051600060405180830381858888f19350505050158015610cca573d6000803e3d6000fd5b505b5b565b60005481565b6000600154600354014311151515610cec57600080fd5b60075434141515610cfc57600080fd5b6001600b60003373ffffffffffffffffffffffffffffffffffffffff1673ffffffffffffffffffffffffffffffffffffffff1681526020019081526020016000206000846000191660001916815260200190815260200160002060008282829054906101000a900463ffffffff160192506101000a81548163ffffffff021916908363ffffffff16021790555060019050919050565b60075481565b60015481565b600854815600a165627a7a7230582094f805543640e11f3d38127299e8a6da2c3dd72fa100f7c17a047286573cd9300029a165627a7a723058205526ff03c8682cf202d12ff63e7fdf770d479a0c2329087ce3510622458ad9a90029",
  "source": "pragma solidity ^0.4.4;\nimport \"./Auction.sol\";\nimport \"./VickreyAuction.sol\";\nimport \"./DutchAuction.sol\";\nimport \"./EnglishAuction.sol\";\n\n//This code is provided for you. You can modify if you want to for debugging, but you shouldn't need to put any logic here (except some updates of course).\ncontract Auctions {\n\n    mapping(uint256 => Auction) auctions;\n    uint256 numAuctions;\n\n    // This function is used for testing\n    function testAuction(uint256 id) returns (uint256 aid){\n      return numAuctions;\n    }\n    \n    function beginDutchAuction(uint256 reservePrice, address judgeAddress, uint256 biddingTimePeriod, uint256 offerPriceDecrement) returns(uint256 auctionID) {\n        auctionID = numAuctions++;\n        auctions[auctionID] = new DutchAuction(reservePrice, judgeAddress, biddingTimePeriod, offerPriceDecrement);\n        return auctionID;\n    }\n    function beginEnglishAuction(uint256 reservePrice, address judgeAddress, uint256 biddingTimePeriod, uint256 minBidIncrement) returns(uint256 auctionID) {\n        auctionID = numAuctions++;\n        auctions[auctionID] = new EnglishAuction(reservePrice, judgeAddress, biddingTimePeriod, minBidIncrement);\n        return auctionID;\n    }\n    function beginVickreyAuction(uint256 reservePrice, address judgeAddress, uint256 commitTimePeriod, uint256 revealTimePeriod, uint256 bidDepositAmount) returns(uint256 auctionID) {\n        auctionID = numAuctions++;\n        auctions[auctionID] = new VickreyAuction(reservePrice, judgeAddress, commitTimePeriod, revealTimePeriod, bidDepositAmount);\n        return auctionID;\n    }\n\n    function bid(uint256 id) payable returns(address) {\n        return auctions[id].bid.value(msg.value)();\n    }\n\n    function finalize(uint256 id) {\n        auctions[id].finalize();\n    }\n\n    function refund(uint256 id, uint256 amount) {\n        auctions[id].refund(amount);\n    }\n\n    function revealBid(uint256 id, uint256 nonce) payable returns(address) {\n        return auctions[id].revealBid.value(msg.value)(nonce);\n    }\n\n    function commitBid(uint256 id, bytes32 bidCommitment) payable returns(bool) {\n        return auctions[id].commitBid.value(msg.value)(bidCommitment);\n    }\n}",
  "sourcePath": "/Users/user/OneDrive - Slovenska technicka univerzita v Bratislave/skola/PhD studium/Blockchain predmet/Cvicenie 6/contracts/Auctions.sol",
  "compiler": {
    "name": "solc",
    "version": "0.4.24+commit.e67f0147.Emscripten.clang"
  },
  "schemaVersion": "2.0.1",
  "updatedAt": "2021-03-24T21:08:19.374Z"
}