{
  "contractName": "DutchAuction",
  "abi": [
    {
      "constant": true,
      "inputs": [],
      "name": "creator",
      "outputs": [
        {
          "name": "",
          "type": "address"
        }
      ],
      "payable": false,
      "stateMutability": "view",
      "type": "function"
    },
    {
      "constant": true,
      "inputs": [],
      "name": "startBlockNum",
      "outputs": [
        {
          "name": "",
          "type": "uint256"
        }
      ],
      "payable": false,
      "stateMutability": "view",
      "type": "function"
    },
    {
      "constant": false,
      "inputs": [
        {
          "name": "nonce",
          "type": "uint256"
        }
      ],
      "name": "revealBid",
      "outputs": [
        {
          "name": "",
          "type": "address"
        }
      ],
      "payable": true,
      "stateMutability": "payable",
      "type": "function"
    },
    {
      "constant": true,
      "inputs": [],
      "name": "decrementPerBlock",
      "outputs": [
        {
          "name": "",
          "type": "uint256"
        }
      ],
      "payable": false,
      "stateMutability": "view",
      "type": "function"
    },
    {
      "constant": true,
      "inputs": [],
      "name": "minimumPrice",
      "outputs": [
        {
          "name": "",
          "type": "uint256"
        }
      ],
      "payable": false,
      "stateMutability": "view",
      "type": "function"
    },
    {
      "constant": false,
      "inputs": [
        {
          "name": "bidCommitment",
          "type": "bytes32"
        }
      ],
      "name": "commitBid",
      "outputs": [
        {
          "name": "",
          "type": "bool"
        }
      ],
      "payable": true,
      "stateMutability": "payable",
      "type": "function"
    },
    {
      "constant": true,
      "inputs": [],
      "name": "bidover",
      "outputs": [
        {
          "name": "",
          "type": "bool"
        }
      ],
      "payable": false,
      "stateMutability": "view",
      "type": "function"
    },
    {
      "constant": true,
      "inputs": [],
      "name": "biddingBlocksNum",
      "outputs": [
        {
          "name": "",
          "type": "uint256"
        }
      ],
      "payable": false,
      "stateMutability": "view",
      "type": "function"
    },
    {
      "constant": true,
      "inputs": [],
      "name": "startPrice",
      "outputs": [
        {
          "name": "",
          "type": "uint256"
        }
      ],
      "payable": false,
      "stateMutability": "view",
      "type": "function"
    },
    {
      "inputs": [
        {
          "name": "reservePrice",
          "type": "uint256"
        },
        {
          "name": "judgeAddress",
          "type": "address"
        },
        {
          "name": "biddingPeriod",
          "type": "uint256"
        },
        {
          "name": "offerPriceDecrement",
          "type": "uint256"
        }
      ],
      "payable": false,
      "stateMutability": "nonpayable",
      "type": "constructor"
    },
    {
      "constant": false,
      "inputs": [],
      "name": "bid",
      "outputs": [
        {
          "name": "highestBidderAddr",
          "type": "address"
        }
      ],
      "payable": true,
      "stateMutability": "payable",
      "type": "function"
    },
    {
      "constant": false,
      "inputs": [],
      "name": "finalize",
      "outputs": [],
      "payable": false,
      "stateMutability": "nonpayable",
      "type": "function"
    },
    {
      "constant": false,
      "inputs": [
        {
          "name": "refundAmount",
          "type": "uint256"
        }
      ],
      "name": "refund",
      "outputs": [],
      "payable": false,
      "stateMutability": "nonpayable",
      "type": "function"
    }
  ],
  "bytecode": "0x608060405234801561001057600080fd5b506040516080806109b483398101806040528101908080519060200190929190805190602001909291908051906020019092919080519060200190929190505050838284826000819055508160018190555080600260006101000a81548173ffffffffffffffffffffffffffffffffffffffff021916908373ffffffffffffffffffffffffffffffffffffffff1602179055504360038190555033600460006101000a81548173ffffffffffffffffffffffffffffffffffffffff021916908373ffffffffffffffffffffffffffffffffffffffff160217905550505050806007819055508082028401600981905550505050506108a1806101136000396000f3006080604052600436106100ba576000357c0100000000000000000000000000000000000000000000000000000000900463ffffffff16806302d05d3f146100bf5780631998aeef1461011657806319ad5c1c14610160578063278ecde11461018b5780633e3b903e146101b85780634bb278f314610218578063532d04561461022f5780637f386b6c1461025a57806386a2cc2714610285578063a6ff1f0d146102c1578063dce57441146102f0578063f1a9af891461031b575b600080fd5b3480156100cb57600080fd5b506100d4610346565b604051808273ffffffffffffffffffffffffffffffffffffffff1673ffffffffffffffffffffffffffffffffffffffff16815260200191505060405180910390f35b61011e61036c565b604051808273ffffffffffffffffffffffffffffffffffffffff1673ffffffffffffffffffffffffffffffffffffffff16815260200191505060405180910390f35b34801561016c57600080fd5b5061017561044a565b6040518082815260200191505060405180910390f35b34801561019757600080fd5b506101b660048036038101908080359060200190929190505050610450565b005b6101d660048036038101908080359060200190929190505050610681565b604051808273ffffffffffffffffffffffffffffffffffffffff1673ffffffffffffffffffffffffffffffffffffffff16815260200191505060405180910390f35b34801561022457600080fd5b5061022d610694565b005b34801561023b57600080fd5b50610244610805565b6040518082815260200191505060405180910390f35b34801561026657600080fd5b5061026f61080b565b6040518082815260200191505060405180910390f35b6102a76004803603810190808035600019169060200190929190505050610811565b604051808215151515815260200191505060405180910390f35b3480156102cd57600080fd5b506102d6610856565b604051808215151515815260200191505060405180910390f35b3480156102fc57600080fd5b50610305610869565b6040518082815260200191505060405180910390f35b34801561032757600080fd5b5061033061086f565b6040518082815260200191505060405180910390f35b600460009054906101000a900473ffffffffffffffffffffffffffffffffffffffff1681565b60008060015460035401431115151561038457600080fd5b600860009054906101000a900460ff161515156103a057600080fd5b6007546003544303026009540390508034101515156103be57600080fd5b33600560006101000a81548173ffffffffffffffffffffffffffffffffffffffff021916908373ffffffffffffffffffffffffffffffffffffffff160217905550346006819055506001600860006101000a81548160ff021916908315150217905550600560009054906101000a900473ffffffffffffffffffffffffffffffffffffffff1691505090565b60035481565b600154600354014311806104705750600860009054906101000a900460ff165b151561047b57600080fd5b600260009054906101000a900473ffffffffffffffffffffffffffffffffffffffff1673ffffffffffffffffffffffffffffffffffffffff163373ffffffffffffffffffffffffffffffffffffffff161415156104d757600080fd5b6000600560009054906101000a900473ffffffffffffffffffffffffffffffffffffffff1673ffffffffffffffffffffffffffffffffffffffff161415151561051f57600080fd5b3073ffffffffffffffffffffffffffffffffffffffff1631811115151561054557600080fd5b600a60019054906101000a900460ff1615801561056f5750600a60009054906101000a900460ff16155b151561057a57600080fd5b6001600a60006101000a81548160ff021916908315150217905550600560009054906101000a900473ffffffffffffffffffffffffffffffffffffffff1673ffffffffffffffffffffffffffffffffffffffff166108fc829081150290604051600060405180830381858888f193505050501580156105fd573d6000803e3d6000fd5b50600460009054906101000a900473ffffffffffffffffffffffffffffffffffffffff1673ffffffffffffffffffffffffffffffffffffffff166108fc3073ffffffffffffffffffffffffffffffffffffffff16319081150290604051600060405180830381858888f1935050505015801561067d573d6000803e3d6000fd5b5050565b600080151561068f57600080fd5b919050565b600560009054906101000a900473ffffffffffffffffffffffffffffffffffffffff1673ffffffffffffffffffffffffffffffffffffffff163373ffffffffffffffffffffffffffffffffffffffff16148061073d5750600260009054906101000a900473ffffffffffffffffffffffffffffffffffffffff1673ffffffffffffffffffffffffffffffffffffffff163373ffffffffffffffffffffffffffffffffffffffff16145b151561074857600080fd5b600a60009054906101000a900460ff161580156107725750600a60019054906101000a900460ff16155b151561077d57600080fd5b6001600a60016101000a81548160ff021916908315150217905550600460009054906101000a900473ffffffffffffffffffffffffffffffffffffffff1673ffffffffffffffffffffffffffffffffffffffff166108fc6006549081150290604051600060405180830381858888f19350505050158015610802573d6000803e3d6000fd5b50565b60075481565b60005481565b600060015460035401431115151561082857600080fd5b600860009054906101000a900460ff1615151561084457600080fd5b6000151561085157600080fd5b919050565b600860009054906101000a900460ff1681565b60015481565b600954815600a165627a7a723058207bbb2fca8cee2bcf1955d4bb0ac23629e47aaba0ce5ffa14a050957cd1d00a0c0029",
  "source": "pragma solidity ^0.4.4;\nimport \"./Auction.sol\";\ncontract DutchAuction is Auction {\n\tuint256 public decrementPerBlock;\n\tbool public bidover;\n\tuint256 public startPrice;\n\tbool refundCalled;\n\tbool finalizeCalled;\n\t// constructor\n\tfunction DutchAuction(uint256 reservePrice, address judgeAddress, uint256 biddingPeriod, uint256 offerPriceDecrement) Auction(reservePrice, biddingPeriod, judgeAddress) {\n\t    decrementPerBlock = offerPriceDecrement;\n\t    startPrice = reservePrice+biddingPeriod*offerPriceDecrement;\n\t}\n\tfunction bid() biddingOpen payable returns(address highestBidderAddr){\n\t\tuint256 currentPrice = startPrice-(block.number-startBlockNum)*decrementPerBlock;\n\t\trequire(msg.value >= currentPrice);\n\t\thighestBidder = msg.sender;\n\t\thighestBid = msg.value;\n\t\tbidover = true;\n\t\treturn highestBidder;\n\t}\n\tfunction finalize(){\n\t\trequire(msg.sender==highestBidder || msg.sender == judgeAddr);\n\t\trequire(!refundCalled && !finalizeCalled);\n\t\tfinalizeCalled=true;\n\t\tcreator.transfer(highestBid);\n\t}\n\tfunction refund(uint256 refundAmount) auctionOver judgeOnly {\n\t\trequire(highestBidder!=0);\n\t\trequire(refundAmount<= this.balance);\n\t\trequire(!finalizeCalled && !refundCalled);\n\t\trefundCalled=true;\n\t\thighestBidder.transfer(refundAmount);\n\t\tcreator.transfer(this.balance);\n\t}\n\tmodifier biddingOpen {\n\t\trequire(block.number<=startBlockNum+biddingBlocksNum);\n\t\trequire(!bidover);\n\t\t_;\n\t}\n\tmodifier auctionOver {\n\t\trequire(block.number>startBlockNum+biddingBlocksNum || bidover);\n\t\t_;\n\t}\n}",
  "sourcePath": "/Users/user/OneDrive - Slovenská technická univerzita v Bratislave/skola/PhD studium/Blockchain predmet/Cvicenie 6/contracts/DutchAuction.sol",
  "compiler": {
    "name": "solc",
    "version": "0.4.24+commit.e67f0147.Emscripten.clang"
  },
  "schemaVersion": "2.0.1",
  "updatedAt": "2021-03-24T21:08:19.377Z"
}