{
  "contractName": "EnglishAuction",
  "abi": [
    {
      "constant": true,
      "inputs": [],
      "name": "creator",
      "outputs": [
        {
          "name": "",
          "type": "address"
        }
      ],
      "payable": false,
      "stateMutability": "view",
      "type": "function"
    },
    {
      "constant": true,
      "inputs": [],
      "name": "startBlockNum",
      "outputs": [
        {
          "name": "",
          "type": "uint256"
        }
      ],
      "payable": false,
      "stateMutability": "view",
      "type": "function"
    },
    {
      "constant": true,
      "inputs": [],
      "name": "numUnchallengedBlocks",
      "outputs": [
        {
          "name": "",
          "type": "uint256"
        }
      ],
      "payable": false,
      "stateMutability": "view",
      "type": "function"
    },
    {
      "constant": true,
      "inputs": [
        {
          "name": "",
          "type": "address"
        }
      ],
      "name": "PendingWithdrawals",
      "outputs": [
        {
          "name": "",
          "type": "uint256"
        }
      ],
      "payable": false,
      "stateMutability": "view",
      "type": "function"
    },
    {
      "constant": true,
      "inputs": [],
      "name": "minBidIncrement",
      "outputs": [
        {
          "name": "",
          "type": "uint256"
        }
      ],
      "payable": false,
      "stateMutability": "view",
      "type": "function"
    },
    {
      "constant": false,
      "inputs": [
        {
          "name": "nonce",
          "type": "uint256"
        }
      ],
      "name": "revealBid",
      "outputs": [
        {
          "name": "",
          "type": "address"
        }
      ],
      "payable": true,
      "stateMutability": "payable",
      "type": "function"
    },
    {
      "constant": true,
      "inputs": [],
      "name": "lastBidBlock",
      "outputs": [
        {
          "name": "",
          "type": "uint256"
        }
      ],
      "payable": false,
      "stateMutability": "view",
      "type": "function"
    },
    {
      "constant": true,
      "inputs": [],
      "name": "minimumPrice",
      "outputs": [
        {
          "name": "",
          "type": "uint256"
        }
      ],
      "payable": false,
      "stateMutability": "view",
      "type": "function"
    },
    {
      "constant": false,
      "inputs": [
        {
          "name": "bidCommitment",
          "type": "bytes32"
        }
      ],
      "name": "commitBid",
      "outputs": [
        {
          "name": "",
          "type": "bool"
        }
      ],
      "payable": true,
      "stateMutability": "payable",
      "type": "function"
    },
    {
      "constant": true,
      "inputs": [],
      "name": "biddingBlocksNum",
      "outputs": [
        {
          "name": "",
          "type": "uint256"
        }
      ],
      "payable": false,
      "stateMutability": "view",
      "type": "function"
    },
    {
      "inputs": [
        {
          "name": "reservePrice",
          "type": "uint256"
        },
        {
          "name": "judgeAddress",
          "type": "address"
        },
        {
          "name": "biddingTimePeriod",
          "type": "uint256"
        },
        {
          "name": "minimumBidIncrement",
          "type": "uint256"
        }
      ],
      "payable": false,
      "stateMutability": "nonpayable",
      "type": "constructor"
    },
    {
      "constant": false,
      "inputs": [],
      "name": "bid",
      "outputs": [
        {
          "name": "highestBidderAddr",
          "type": "address"
        }
      ],
      "payable": true,
      "stateMutability": "payable",
      "type": "function"
    },
    {
      "constant": false,
      "inputs": [],
      "name": "finalize",
      "outputs": [],
      "payable": false,
      "stateMutability": "nonpayable",
      "type": "function"
    },
    {
      "constant": false,
      "inputs": [
        {
          "name": "refundAmount",
          "type": "uint256"
        }
      ],
      "name": "refund",
      "outputs": [],
      "payable": false,
      "stateMutability": "nonpayable",
      "type": "function"
    },
    {
      "constant": false,
      "inputs": [],
      "name": "withdraw",
      "outputs": [],
      "payable": false,
      "stateMutability": "nonpayable",
      "type": "function"
    }
  ],
  "bytecode": "0x608060405234801561001057600080fd5b50604051608080610bfb83398101806040528101908080519060200190929190805190602001909291908051906020019092919080519060200190929190505050838284826000819055508160018190555080600260006101000a81548173ffffffffffffffffffffffffffffffffffffffff021916908373ffffffffffffffffffffffffffffffffffffffff1602179055504360038190555033600460006101000a81548173ffffffffffffffffffffffffffffffffffffffff021916908373ffffffffffffffffffffffffffffffffffffffff16021790555050505080600781905550600360088190555050505050610aeb806101106000396000f3006080604052600436106100d0576000357c0100000000000000000000000000000000000000000000000000000000900463ffffffff16806302d05d3f146100d55780631998aeef1461012c57806319ad5c1c14610176578063278ecde1146101a15780632a4af21c146101ce5780632df5c8cd146101f9578063335b115e146102505780633ccfd60b1461027b5780633e3b903e146102925780634bb278f3146102f257806371974cbe146103095780637f386b6c1461033457806386a2cc271461035f578063dce574411461039b575b600080fd5b3480156100e157600080fd5b506100ea6103c6565b604051808273ffffffffffffffffffffffffffffffffffffffff1673ffffffffffffffffffffffffffffffffffffffff16815260200191505060405180910390f35b6101346103ec565b604051808273ffffffffffffffffffffffffffffffffffffffff1673ffffffffffffffffffffffffffffffffffffffff16815260200191505060405180910390f35b34801561018257600080fd5b5061018b6105c9565b6040518082815260200191505060405180910390f35b3480156101ad57600080fd5b506101cc600480360381019080803590602001909291905050506105cf565b005b3480156101da57600080fd5b506101e36107d6565b6040518082815260200191505060405180910390f35b34801561020557600080fd5b5061023a600480360381019080803573ffffffffffffffffffffffffffffffffffffffff1690602001909291905050506107dc565b6040518082815260200191505060405180910390f35b34801561025c57600080fd5b506102656107f4565b6040518082815260200191505060405180910390f35b34801561028757600080fd5b506102906107fa565b005b6102b0600480360381019080803590602001909291905050506108d7565b604051808273ffffffffffffffffffffffffffffffffffffffff1673ffffffffffffffffffffffffffffffffffffffff16815260200191505060405180910390f35b3480156102fe57600080fd5b506103076108ea565b005b34801561031557600080fd5b5061031e610a6f565b6040518082815260200191505060405180910390f35b34801561034057600080fd5b50610349610a75565b6040518082815260200191505060405180910390f35b6103816004803603810190808035600019169060200190929190505050610a7b565b604051808215151515815260200191505060405180910390f35b3480156103a757600080fd5b506103b0610ab9565b6040518082815260200191505060405180910390f35b600460009054906101000a900473ffffffffffffffffffffffffffffffffffffffff1681565b600043600854600954011015151561040357600080fd5b60015460035401431115151561041857600080fd5b600054341015151561042957600080fd5b60075460065401341015151561043e57600080fd5b6000600560009054906101000a900473ffffffffffffffffffffffffffffffffffffffff1673ffffffffffffffffffffffffffffffffffffffff1614151561055257600560009054906101000a900473ffffffffffffffffffffffffffffffffffffffff1673ffffffffffffffffffffffffffffffffffffffff166108fc6006549081150290604051600060405180830381858888f19350505050151561055157600654600a6000600560009054906101000a900473ffffffffffffffffffffffffffffffffffffffff1673ffffffffffffffffffffffffffffffffffffffff1673ffffffffffffffffffffffffffffffffffffffff168152602001908152602001600020600082825401925050819055505b5b33600560006101000a81548173ffffffffffffffffffffffffffffffffffffffff021916908373ffffffffffffffffffffffffffffffffffffffff1602179055503460068190555043600981905550600560009054906101000a900473ffffffffffffffffffffffffffffffffffffffff16905090565b60035481565b60015460035401431115156105e357600080fd5b600260009054906101000a900473ffffffffffffffffffffffffffffffffffffffff1673ffffffffffffffffffffffffffffffffffffffff163373ffffffffffffffffffffffffffffffffffffffff1614151561063f57600080fd5b6000600560009054906101000a900473ffffffffffffffffffffffffffffffffffffffff1673ffffffffffffffffffffffffffffffffffffffff161415151561068757600080fd5b3073ffffffffffffffffffffffffffffffffffffffff163181111515156106ad57600080fd5b600b60019054906101000a900460ff161580156106d75750600b60009054906101000a900460ff16155b15156106e257600080fd5b6001600b60006101000a81548160ff021916908315150217905550600560009054906101000a900473ffffffffffffffffffffffffffffffffffffffff1673ffffffffffffffffffffffffffffffffffffffff166108fc829081150290604051600060405180830381858888f19350505050158015610765573d6000803e3d6000fd5b50600460009054906101000a900473ffffffffffffffffffffffffffffffffffffffff1673ffffffffffffffffffffffffffffffffffffffff166108fc82600654039081150290604051600060405180830381858888f193505050501580156107d2573d6000803e3d6000fd5b5050565b60085481565b600a6020528060005260406000206000915090505481565b60075481565b6000600a60003373ffffffffffffffffffffffffffffffffffffffff1673ffffffffffffffffffffffffffffffffffffffff1681526020019081526020016000205490506000600a60003373ffffffffffffffffffffffffffffffffffffffff1673ffffffffffffffffffffffffffffffffffffffff1681526020019081526020016000208190555060008111156108d4573373ffffffffffffffffffffffffffffffffffffffff166108fc829081150290604051600060405180830381858888f193505050501580156108d2573d6000803e3d6000fd5b505b50565b60008015156108e557600080fd5b919050565b60015460035401431115156108fe57600080fd5b600560009054906101000a900473ffffffffffffffffffffffffffffffffffffffff1673ffffffffffffffffffffffffffffffffffffffff163373ffffffffffffffffffffffffffffffffffffffff1614806109a75750600260009054906101000a900473ffffffffffffffffffffffffffffffffffffffff1673ffffffffffffffffffffffffffffffffffffffff163373ffffffffffffffffffffffffffffffffffffffff16145b15156109b257600080fd5b600b60009054906101000a900460ff161580156109dc5750600b60019054906101000a900460ff16155b15156109e757600080fd5b6001600b60016101000a81548160ff021916908315150217905550600460009054906101000a900473ffffffffffffffffffffffffffffffffffffffff1673ffffffffffffffffffffffffffffffffffffffff166108fc6006549081150290604051600060405180830381858888f19350505050158015610a6c573d6000803e3d6000fd5b50565b60095481565b60005481565b6000436008546009540110151515610a9257600080fd5b600154600354014311151515610aa757600080fd5b60001515610ab457600080fd5b919050565b600154815600a165627a7a723058203f2545f21941e0ac386e5c88ae25ebbc66ad697fc86e031a3c7f577d085fd87f0029",
  "source": "pragma solidity ^0.4.4;\nimport \"./Auction.sol\";\ncontract EnglishAuction is Auction {\n\tuint256 public minBidIncrement;\n\tuint public numUnchallengedBlocks;\n\tuint public lastBidBlock;\n\tmapping (address => uint) public PendingWithdrawals;\n\tbool refundCalled;\n\tbool finalizeCalled;\n    // constructor\n    function EnglishAuction(uint256 reservePrice, address judgeAddress, uint256 biddingTimePeriod, uint256 minimumBidIncrement) Auction(reservePrice, biddingTimePeriod, judgeAddress) {\n        minBidIncrement = minimumBidIncrement;\n        numUnchallengedBlocks = 3;\n    }\n    function bid() biddingOpen payable returns(address highestBidderAddr) {\n    \trequire(msg.value >= minimumPrice);\n    \trequire(msg.value >= highestBid + minBidIncrement);\n    \tif(highestBidder!=0){\n    \t\tif(!highestBidder.send(highestBid)){\n    \t\t\tPendingWithdrawals[highestBidder]+=highestBid;\n    \t\t}\n    \t}\n    \thighestBidder = msg.sender;\n    \thighestBid = msg.value;\n    \tlastBidBlock = block.number;\n    \treturn highestBidder;\n    }    \n    function finalize() auctionOver {\n    \trequire(msg.sender==highestBidder || msg.sender == judgeAddr);\n    \trequire(!refundCalled && !finalizeCalled);\n    \tfinalizeCalled=true;\n    \tcreator.transfer(highestBid);\n    }\n    function refund(uint256 refundAmount) auctionOver judgeOnly {\n    \trequire(highestBidder!=0);\n\t\trequire(refundAmount<= this.balance);\n\t\trequire(!finalizeCalled && !refundCalled);\n\t\trefundCalled = true;\n\t\thighestBidder.transfer(refundAmount);\n\t\tcreator.transfer(highestBid-refundAmount);\n    }\n    function withdraw(){\n    \tuint amount = PendingWithdrawals[msg.sender];\n    \tPendingWithdrawals[msg.sender]=0;\n    \tif(amount>0){\n    \t\tmsg.sender.transfer(amount);\n    \t}\n    }\n    modifier auctionOver {\n    \trequire(block.number > startBlockNum+biddingBlocksNum);\n    \t_;\n    }\n    modifier biddingOpen {\n    \trequire(lastBidBlock+numUnchallengedBlocks>=block.number);\n\t\trequire(block.number<=startBlockNum+biddingBlocksNum);\n\t\t_;\n    }\n}",
  "sourcePath": "/Users/user/OneDrive - Slovenská technická univerzita v Bratislave/skola/PhD studium/Blockchain predmet/Cvicenie 6/contracts/EnglishAuction.sol",
  "compiler": {
    "name": "solc",
    "version": "0.4.24+commit.e67f0147.Emscripten.clang"
  },
  "schemaVersion": "2.0.1",
  "updatedAt": "2021-03-24T21:08:19.392Z"
}