{
  "contractName": "VickreyAuction",
  "abi": [
    {
      "constant": true,
      "inputs": [],
      "name": "creator",
      "outputs": [
        {
          "name": "",
          "type": "address"
        }
      ],
      "payable": false,
      "stateMutability": "view",
      "type": "function"
    },
    {
      "constant": false,
      "inputs": [],
      "name": "bid",
      "outputs": [
        {
          "name": "",
          "type": "address"
        }
      ],
      "payable": true,
      "stateMutability": "payable",
      "type": "function"
    },
    {
      "constant": true,
      "inputs": [],
      "name": "startBlockNum",
      "outputs": [
        {
          "name": "",
          "type": "uint256"
        }
      ],
      "payable": false,
      "stateMutability": "view",
      "type": "function"
    },
    {
      "constant": true,
      "inputs": [],
      "name": "minimumPrice",
      "outputs": [
        {
          "name": "",
          "type": "uint256"
        }
      ],
      "payable": false,
      "stateMutability": "view",
      "type": "function"
    },
    {
      "constant": true,
      "inputs": [],
      "name": "bidDepositAmount",
      "outputs": [
        {
          "name": "",
          "type": "uint256"
        }
      ],
      "payable": false,
      "stateMutability": "view",
      "type": "function"
    },
    {
      "constant": true,
      "inputs": [],
      "name": "biddingBlocksNum",
      "outputs": [
        {
          "name": "",
          "type": "uint256"
        }
      ],
      "payable": false,
      "stateMutability": "view",
      "type": "function"
    },
    {
      "constant": true,
      "inputs": [],
      "name": "revealBlocksNum",
      "outputs": [
        {
          "name": "",
          "type": "uint256"
        }
      ],
      "payable": false,
      "stateMutability": "view",
      "type": "function"
    },
    {
      "inputs": [
        {
          "name": "reservePrice",
          "type": "uint256"
        },
        {
          "name": "judgeAddress",
          "type": "address"
        },
        {
          "name": "commitTimePeriod",
          "type": "uint256"
        },
        {
          "name": "revealTimePeriod",
          "type": "uint256"
        },
        {
          "name": "_bidDepositAmount",
          "type": "uint256"
        }
      ],
      "payable": false,
      "stateMutability": "nonpayable",
      "type": "constructor"
    },
    {
      "constant": false,
      "inputs": [
        {
          "name": "bidCommitment",
          "type": "bytes32"
        }
      ],
      "name": "commitBid",
      "outputs": [
        {
          "name": "",
          "type": "bool"
        }
      ],
      "payable": true,
      "stateMutability": "payable",
      "type": "function"
    },
    {
      "constant": false,
      "inputs": [
        {
          "name": "nonce",
          "type": "uint256"
        }
      ],
      "name": "revealBid",
      "outputs": [
        {
          "name": "highestBidder",
          "type": "address"
        }
      ],
      "payable": true,
      "stateMutability": "payable",
      "type": "function"
    },
    {
      "constant": false,
      "inputs": [],
      "name": "finalize",
      "outputs": [],
      "payable": false,
      "stateMutability": "nonpayable",
      "type": "function"
    },
    {
      "constant": false,
      "inputs": [
        {
          "name": "refundAmount",
          "type": "uint256"
        }
      ],
      "name": "refund",
      "outputs": [],
      "payable": false,
      "stateMutability": "nonpayable",
      "type": "function"
    },
    {
      "constant": false,
      "inputs": [],
      "name": "withdraw",
      "outputs": [
        {
          "name": "",
          "type": "uint256"
        }
      ],
      "payable": false,
      "stateMutability": "nonpayable",
      "type": "function"
    }
  ],
  "bytecode": "0x608060405234801561001057600080fd5b5060405160a080610eea8339810180604052810190808051906020019092919080519060200190929190805190602001909291908051906020019092919080519060200190929190505050848385826000819055508160018190555080600260006101000a81548173ffffffffffffffffffffffffffffffffffffffff021916908373ffffffffffffffffffffffffffffffffffffffff1602179055504360038190555033600460006101000a81548173ffffffffffffffffffffffffffffffffffffffff021916908373ffffffffffffffffffffffffffffffffffffffff16021790555050505080600781905550816008819055505050505050610dd08061011a6000396000f3006080604052600436106100ba576000357c0100000000000000000000000000000000000000000000000000000000900463ffffffff16806302d05d3f146100bf5780631998aeef1461011657806319ad5c1c14610160578063278ecde11461018b5780633ccfd60b146101b85780633e3b903e146101e35780634bb278f3146102435780637f386b6c1461025a57806386a2cc2714610285578063aac71c29146102c1578063dce57441146102ec578063e7c6d95814610317575b600080fd5b3480156100cb57600080fd5b506100d4610342565b604051808273ffffffffffffffffffffffffffffffffffffffff1673ffffffffffffffffffffffffffffffffffffffff16815260200191505060405180910390f35b61011e610368565b604051808273ffffffffffffffffffffffffffffffffffffffff1673ffffffffffffffffffffffffffffffffffffffff16815260200191505060405180910390f35b34801561016c57600080fd5b5061017561038f565b6040518082815260200191505060405180910390f35b34801561019757600080fd5b506101b660048036038101908080359060200190929190505050610395565b005b3480156101c457600080fd5b506101cd610637565b6040518082815260200191505060405180910390f35b6102016004803603810190808035906020019092919050505061086e565b604051808273ffffffffffffffffffffffffffffffffffffffff1673ffffffffffffffffffffffffffffffffffffffff16815260200191505060405180910390f35b34801561024f57600080fd5b50610258610aaf565b005b34801561026657600080fd5b5061026f610ccf565b6040518082815260200191505060405180910390f35b6102a76004803603810190808035600019169060200190929190505050610cd5565b604051808215151515815260200191505060405180910390f35b3480156102cd57600080fd5b506102d6610d92565b6040518082815260200191505060405180910390f35b3480156102f857600080fd5b50610301610d98565b6040518082815260200191505060405180910390f35b34801561032357600080fd5b5061032c610d9e565b6040518082815260200191505060405180910390f35b600460009054906101000a900473ffffffffffffffffffffffffffffffffffffffff1681565b600060015460035401431115151561037f57600080fd5b6000151561038c57600080fd5b90565b60035481565b600015156103a257600080fd5b600260009054906101000a900473ffffffffffffffffffffffffffffffffffffffff1673ffffffffffffffffffffffffffffffffffffffff163373ffffffffffffffffffffffffffffffffffffffff161415156103fe57600080fd5b6000600560009054906101000a900473ffffffffffffffffffffffffffffffffffffffff1673ffffffffffffffffffffffffffffffffffffffff161415151561044657600080fd5b3073ffffffffffffffffffffffffffffffffffffffff1631811115151561046c57600080fd5b600a60019054906101000a900460ff161580156104965750600a60009054906101000a900460ff16155b15156104a157600080fd5b6001600a60006101000a81548160ff021916908315150217905550600560009054906101000a900473ffffffffffffffffffffffffffffffffffffffff1673ffffffffffffffffffffffffffffffffffffffff166108fc829081150290604051600060405180830381858888f19350505050158015610524573d6000803e3d6000fd5b50600060095414801561053957506000600654115b156105bb578060005411156105b657600460009054906101000a900473ffffffffffffffffffffffffffffffffffffffff1673ffffffffffffffffffffffffffffffffffffffff166108fc82600054039081150290604051600060405180830381858888f193505050501580156105b4573d6000803e3d6000fd5b505b610634565b80600954111561063357600460009054906101000a900473ffffffffffffffffffffffffffffffffffffffff1673ffffffffffffffffffffffffffffffffffffffff166108fc82600954039081150290604051600060405180830381858888f19350505050158015610631573d6000803e3d6000fd5b505b5b50565b600080600060085460015460035401014311151561065457600080fd5b600560009054906101000a900473ffffffffffffffffffffffffffffffffffffffff1673ffffffffffffffffffffffffffffffffffffffff163373ffffffffffffffffffffffffffffffffffffffff161415610797576009549050600060095414156106c05760005490505b80600c60003373ffffffffffffffffffffffffffffffffffffffff1673ffffffffffffffffffffffffffffffffffffffff1681526020019081526020016000205403915080600c60003373ffffffffffffffffffffffffffffffffffffffff1673ffffffffffffffffffffffffffffffffffffffff168152602001908152602001600020819055503373ffffffffffffffffffffffffffffffffffffffff166108fc839081150290604051600060405180830381858888f1935050505015801561078e573d6000803e3d6000fd5b50819250610869565b600c60003373ffffffffffffffffffffffffffffffffffffffff1673ffffffffffffffffffffffffffffffffffffffff1681526020019081526020016000205491506000600c60003373ffffffffffffffffffffffffffffffffffffffff1673ffffffffffffffffffffffffffffffffffffffff168152602001908152602001600020819055503373ffffffffffffffffffffffffffffffffffffffff166108fc839081150290604051600060405180830381858888f19350505050158015610864573d6000803e3d6000fd5b508192505b505090565b600080600154600354014311151561088557600080fd5b6008546001546003540101431115151561089e57600080fd5b82346040518083815260200182815260200192505050604051809103902090506000600b60003373ffffffffffffffffffffffffffffffffffffffff1673ffffffffffffffffffffffffffffffffffffffff1681526020019081526020016000206000836000191660001916815260200190815260200160002060009054906101000a900463ffffffff1663ffffffff1611151561093b57600080fd5b600b60003373ffffffffffffffffffffffffffffffffffffffff1673ffffffffffffffffffffffffffffffffffffffff16815260200190815260200160002060008260001916600019168152602001908152602001600020600081819054906101000a900463ffffffff16809291906001900391906101000a81548163ffffffff021916908363ffffffff1602179055505034600c60003373ffffffffffffffffffffffffffffffffffffffff1673ffffffffffffffffffffffffffffffffffffffff1681526020019081526020016000206000828254019250508190555060095434118015610a2d57506000543410155b15610a5d57600654341115610a545760065460098190555034600681905550339150610a5c565b346009819055505b5b3373ffffffffffffffffffffffffffffffffffffffff166108fc6007549081150290604051600060405180830381858888f19350505050158015610aa5573d6000803e3d6000fd5b5081915050919050565b600854600154600354010143111515610ac757600080fd5b600560009054906101000a900473ffffffffffffffffffffffffffffffffffffffff1673ffffffffffffffffffffffffffffffffffffffff163373ffffffffffffffffffffffffffffffffffffffff161480610b705750600260009054906101000a900473ffffffffffffffffffffffffffffffffffffffff1673ffffffffffffffffffffffffffffffffffffffff163373ffffffffffffffffffffffffffffffffffffffff16145b1515610b7b57600080fd5b600a60009054906101000a900460ff16158015610ba55750600a60019054906101000a900460ff16155b1515610bb057600080fd5b6001600a60016101000a81548160ff0219169083151502179055506000600954148015610be05750600060065414155b15610c5557600460009054906101000a900473ffffffffffffffffffffffffffffffffffffffff1673ffffffffffffffffffffffffffffffffffffffff166108fc6000549081150290604051600060405180830381858888f19350505050158015610c4f573d6000803e3d6000fd5b50610ccd565b60006009541115610ccc57600460009054906101000a900473ffffffffffffffffffffffffffffffffffffffff1673ffffffffffffffffffffffffffffffffffffffff166108fc6009549081150290604051600060405180830381858888f19350505050158015610cca573d6000803e3d6000fd5b505b5b565b60005481565b6000600154600354014311151515610cec57600080fd5b60075434141515610cfc57600080fd5b6001600b60003373ffffffffffffffffffffffffffffffffffffffff1673ffffffffffffffffffffffffffffffffffffffff1681526020019081526020016000206000846000191660001916815260200190815260200160002060008282829054906101000a900463ffffffff160192506101000a81548163ffffffff021916908363ffffffff16021790555060019050919050565b60075481565b60015481565b600854815600a165627a7a7230582094f805543640e11f3d38127299e8a6da2c3dd72fa100f7c17a047286573cd9300029",
  "source": "pragma solidity ^0.4.4;\nimport \"./Auction.sol\";\ncontract VickreyAuction is Auction {\n\tuint256 public bidDepositAmount;\n\tuint256 public revealBlocksNum;\n\tuint256 secondHighestBid;\n\tbool refundCalled;\n\tbool finalizeCalled;\n\tmapping ( address => mapping ( bytes32 => uint32) ) deposits;   // maps address,bid => count\n\tmapping ( address => uint ) bidAmount;\n\t// constructor\n\tfunction VickreyAuction(uint256 reservePrice, address judgeAddress, uint256 commitTimePeriod, uint256 revealTimePeriod, uint256 _bidDepositAmount) Auction(reservePrice, commitTimePeriod, judgeAddress) {\n\t\tbidDepositAmount = _bidDepositAmount;\n\t\trevealBlocksNum = revealTimePeriod; \n\t}\n\tfunction commitBid(bytes32 bidCommitment) biddingOpen payable returns(bool) {\n\t\trequire(msg.value == bidDepositAmount);\n\t\tdeposits[msg.sender][bidCommitment]+=1;\n\t\treturn true;\n\t}\n\tfunction revealBid(uint256 nonce) revealOpen payable returns(address highestBidder) {\n\t\tbytes32 commitval = sha3(nonce,msg.value);\n\t\trequire(deposits[msg.sender][commitval]>0);\n\t\tdeposits[msg.sender][commitval]--;\n\t\tbidAmount[msg.sender]+=msg.value;\n\t\tif(msg.value>secondHighestBid && msg.value>=minimumPrice){\n\t\t\tif(msg.value>highestBid){\n\t\t\t\tsecondHighestBid = highestBid;\n\t\t\t\thighestBid = msg.value;\n\t\t\t\thighestBidder = msg.sender;\n\t\t\t}else{\n\t\t\t\tsecondHighestBid = msg.value;\n\t\t\t}\n\t\t}\n\t\tmsg.sender.transfer(bidDepositAmount);\n\t\treturn highestBidder;\n\t}\n\tfunction finalize() auctionover {\n\t\trequire(msg.sender == highestBidder || msg.sender == judgeAddr);\n\t\trequire(!refundCalled && !finalizeCalled);\n\t\tfinalizeCalled=true;\n\t\tif(secondHighestBid==0 && highestBid!=0){\n\t\t\tcreator.transfer(minimumPrice);\n\t\t}else if(secondHighestBid>0){\n\t\t\tcreator.transfer(secondHighestBid);\n\t\t}\n\t}\n\tfunction refund(uint256 refundAmount) auctionOver judgeOnly {\n\t\trequire(highestBidder!=0);\n\t\trequire(refundAmount<=this.balance);\n\t\trequire(!finalizeCalled && !refundCalled);\n\t\trefundCalled=true;\n\t\thighestBidder.transfer(refundAmount);\n\t\tif(secondHighestBid==0 && highestBid>0){\n\t\t\tif(minimumPrice>refundAmount)\n\t\t\t\tcreator.transfer(minimumPrice-refundAmount);\n\t\t}else if (secondHighestBid>refundAmount)\n\t\t\tcreator.transfer(secondHighestBid-refundAmount);\n\t}\n\tfunction withdraw() auctionover returns (uint){\n\t\tuint amount;\n\t\tif(msg.sender==highestBidder){\n\t\t\tuint payAmount = secondHighestBid;\n\t\t\tif(secondHighestBid == 0)\n\t\t\t\tpayAmount = minimumPrice;\n\t\t\tamount = bidAmount[msg.sender]-payAmount;\n\t\t\tbidAmount[msg.sender]=payAmount;\n\t\t\tmsg.sender.transfer(amount);\n\t\t\treturn amount;\n\t\t}\n\t\tamount = bidAmount[msg.sender];\n\t\tbidAmount[msg.sender] = 0;\n\t\tmsg.sender.transfer(amount);\n\t\treturn amount;\n\t}\n\tmodifier auctionover {\n\t\trequire(block.number > startBlockNum+biddingBlocksNum+revealBlocksNum);\n\t\t_;\n\t}\n\tmodifier biddingOpen {\n\t\trequire(block.number <= startBlockNum+biddingBlocksNum);\n\t\t_;\n\t}\n\tmodifier revealOpen {\n\t\trequire(block.number > startBlockNum+biddingBlocksNum);\n\t\trequire(block.number <= startBlockNum+biddingBlocksNum+revealBlocksNum);\n\t\t_;\n\t}\n}",
  "sourcePath": "/Users/user/OneDrive - Slovenská technická univerzita v Bratislave/skola/PhD studium/Blockchain predmet/Cvicenie 6/contracts/VickreyAuction.sol",
  "compiler": {
    "name": "solc",
    "version": "0.4.24+commit.e67f0147.Emscripten.clang"
  },
  "schemaVersion": "2.0.1",
  "updatedAt": "2021-03-24T21:08:19.384Z"
}